:020000040800F2
:10000000002000206D1F0008BD1F0008BD1F000854
:1000100000000000000000000000000000000000E0
:10002000000000000000000000000000BD1F0008EC
:100030000000000000000000E9260008152100086B
:10004000BD1F0008BD1F0008BD1F0008BD1F000820
:10005000BD1F0008BD1F0008BD1F0008BD1F000810
:10006000BD1F0008BD1F0008BD1F0008BD1F000800
:10007000BD1F0008BD1F0008BD1F0008BD1F0008F0
:10008000BD1F0008BD1F000800000000BD1F0008C4
:10009000BD1F0008BD1F0008BD1F0008BD1F0008D0
:1000A000BD1F0008BD1F0008BD1F00080521000876
:1000B000F520000800000000BD1F0008000000003F
:1000C0005FF808F100B5034B1A78002A01D101202E
:1000D000187000BDAC0E002008B504480368002B62
:1000E00003D0034B002B00D0984708BDAC0E002076
:1000F00000000000002934D00123002210B48842FF
:100100002CD301242407A14204D2814202D2090146
:100110001B01F8E7E400A14204D2814202D2490067
:100120005B00F8E7884201D3401A1A434C08A0420A
:1001300002D3001B5C0822438C08A04202D3001BA0
:100140009C082243CC08A04202D3001BDC082243B7
:10015000002803D01B0901D00909E3E7101C10BCDB
:100160007047002801D00020C04307B4024802A114
:100170004018029003BDC046D90000000029F0D00D
:1001800003B5FFF7B9FF0EBC4243891A1847C046B2
:10019000002941D010B4041C4C40A4460123002285
:1001A000002900D54942002800D5404288422CD37E
:1001B00001242407A14204D2814202D209011B0179
:1001C000F8E7E400A14204D2814202D249005B0078
:1001D000F8E7884201D3401A1A434C08A04202D3E0
:1001E000001B5C0822438C08A04202D3001B9C0821
:1001F0002243CC08A04202D3001BDC082243002883
:1002000003D01B0901D00909E3E7101C6446002C48
:1002100000D5404210BC7047002806D003DB002008
:10022000C043400801E08020000607B4024802A154
:100230004018029003BDC046190000000029EBD011
:1002400003B5FFF7A7FF0EBC4243891A1847C04603
:100250007047C0468446101C62468C46191C634693
:1002600000E0C0461FB500F01DFF002801D40021AA
:10027000C8421FBD10B500F06FFE4042013010BDF6
:1002800010B500F00FFF002801DB002010BD012099
:1002900010BDC04610B500F005FF002801DD0020AC
:1002A00010BD012010BDC04610B500F089FE002829
:1002B00001DC002010BD012010BDC04610B500F0CB
:1002C0007FFE002801DA002010BD012010BDC046CD
:1002D000F8B557464646C0B4041C0803CD0FDF0FDF
:1002E0004E00400A610F0843B846111C1F03AC467C
:1002F0007A0A5D004B0F1A43760D6D0D9246E400AD
:10030000C900721BC44500D196E0002A00DCFFE062
:10031000002D0DD15346002B02D1002900D1C3E09E
:10032000013A002A00D044E15546611A431B1FE000
:10033000B34B9E4200D1C3E0802357461D042F4398
:10034000BA46382A00DD0BE11F2A00DD48E12025EE
:10035000AB1A57460D1C9F409940D5403D430F1C9A
:10036000791E8F415346291C3943D340611AC31A61
:100370008C42A4411B19351C0C1C66461F0200D47C
:10038000C4E0A04F1F40002F00D1E4E0381C01F072
:1003900047FD021C083A1F2A00DDD7E02023211C5C
:1003A000981A9740C1400F439440954200DDAAE05F
:1003B000521B01321F2A00DD00E12023991A201C64
:1003C0003D1CD0408D408C400543631E9C413B1C2E
:1003D0002C43D340002501220F212140042905D0C0
:1003E000211DA142A4411B1B6A1C0C1C1F0200D52D
:1003F0006CE08349101C5F07E40808402A1C3C435A
:10040000DB08012800DC70E07F4D0A402B407F4F65
:10041000002000210F407A497D4D3B430A40201CBB
:100420001D4014057B4B25431D40F607291C314315
:100430000CBC90469A46F8BD002A00DC9FE0002DD7
:100440002DD06F4B9E423BD0802357461D042F4337
:10045000BA46382A00DC0EE15246002A02D10029B1
:1004600000D15EE10023012109191D18A14280413C
:100470002B1A0C1C351C1F020ED5614A0135954202
:1004800000D148E1644E01272740334060083C1CFE
:10049000D90704430C435B086A1C66469CE7534635
:1004A000002B06D1002904D1721C351C031C6646A2
:1004B00092E7013A002A00D1F8E0514B9E42C8D1A0
:1004C0008027031C66463A014D4D85E74C498A4218
:1004D00039D051484A490340501C5F07E40808409E
:1004E0003C43DB08012800DD8EE7002C01D1002B06
:1004F00007D0002A3FD080274349380303430B40ED
:100500003F490A4083E7444BAD1A3B406A1C63E70E
:10051000002A00D082E03A4D771C2F40012F00DCEA
:10052000E0E05246631A851A9C429241AF183D02A0
:1005300000D498E00C1B5246131AA1428041351C8E
:100540001F1846461FE70023002460E7271C2838B1
:100550008740002429E7201C01F062FC203018E7C6
:100560005246002A04D1002902D100230021FDE6D1
:1005700000230121FAE6244A1340002247E7002A1B
:1005800000D0E2E0751C1E4B2F1C1F40012F00DC29
:1005900099E09D4200D1BEE00A195646A242A4410C
:1005A00033181B1BDF0754083C435B086A1C664674
:1005B00012E7134B9E4200D0C3E681E7202A00D108
:1005C0007DE04020811A3D1C8D402B1C1C43203AAD
:1005D000631E9C41D7403C43012200230025FBE6DB
:1005E000202A6ED04027BB1A55469D402B1C19432C
:1005F000203A57464B1E9941D74039430023B5E670
:10060000FF070000FFFF7F00FFFF0F000000F0FF6B
:10061000FFFF0F80FFFFFF7FFFFF7FFF5242002E93
:100620003BD0BC4B9D4200D1B1E08026370438431B
:10063000382A00DDBDE01F2A00DD4EE12026B31A76
:10064000071C261C9F409C40D640631E9C413E4395
:10065000031C3443D34052460C1BD01AA142924192
:10066000831846468AE6002F01D1002B4DD0351C59
:100670001C1C664687E61F2A56DC2025AB1A574607
:100680000D1C9F409940D5403D430F1C791E8F4162
:100690005346291C3943D340E6E600287ED1002C7E
:1006A0007CD16A1C53460C1C464695E60A195546F1
:1006B0002F18A242A4413B1B351C141CDBE600236F
:1006C00084E7002393E7002E00D0D1E0002800D07B
:1006D0002BE1002C00D028E153460C1C6646012279
:1006E000002579E6002E3ED1002800D088E0002CBD
:1006F00000D085E05346002B01D1002905D0534698
:100700000C1C46460122002566E600260122002335
:100710000421002569E68022664612010023042197
:1007200063E6002300219FE6202A00D1D3E0402782
:10073000BB1A55469D402B1C1943203A57464B1E69
:100740009941D740394300238EE65242002E38D1DA
:10075000002800D0D3E0002C00D0D0E06A1C534623
:100760000C1C664638E6002861D1002C5FD1524649
:10077000002A0CD100290AD180200424002602017D
:10078000654B614231E6634B9D4200D050E78022C9
:1007900053460C1C464612015E4D1DE6013A002AE6
:1007A000F1D156460C1B331AA14289415B184646CB
:1007B000E4E5002802D1002C00D19DE000230124B3
:1007C00049E7544B9D427AD0802637043843382A73
:1007D00000DDA3E01F2A00DDCAE02026B31A071CB3
:1007E000261C9F409C40D640631E9C413E43031CF8
:1007F0003443D340641853448C4292419B1A3AE6E6
:100800005546002D01D1002960D0621A5646871B3B
:1008100094429B41FB181F0200D49CE00C1B321A2F
:10082000A14289415318464601220025D4E553468A
:10083000002B02D1002900D142E680264507E408BA
:10084000C00833032C43184200D182E05546EA0821
:100850001A4200D07DE0CF086C07101C3C4346468E
:10086000C200630F80211343E4000A01294DB3E560
:10087000002801D1002C22D05746002F02D1002998
:1008800000D11DE680264207E408C0083303144364
:10089000184200D17DE05546EA081A4279D1C908CC
:1008A0006C07131C0C434646600F8025DB002A01B1
:1008B0000343E400174D8FE5164B9D4287D18025F9
:1008C0002A0153460C1C6646124D85E5031C6646FC
:1008D0000122002580E500232EE7202A57D040265C
:1008E000B31A071C9F403B1C1C43203A631E9C41CB
:1008F000D04004430023AEE600230024ABE6013AD7
:10090000002AD9D156460C1933188C42B6419B1B8C
:10091000B1E5C046FF070000FFFF7F00002801D1BE
:10092000002C22D00023012464E75246002A01D182
:100930000029CBD0091955462B18A142A4411B1BF5
:100940001E0229D518480C1C0340664602220125C8
:1009500042E5664684E7002B02D1002A00D1D4E6A6
:10096000141C66460122002536E50023002441E7D9
:10097000202A16D04026B31A071C9F403B1C1C435C
:10098000203A631E9C41D0400443002332E70023F9
:10099000AAE7031C664687E70C1C66460122002571
:1009A0001AE50023EBE7C046FFFF7FFFF0B55F4687
:1009B00056464D464446F0B41F1C4B00161C0C0313
:1009C0005B0DCA0F87B0051C240B98469146002B7F
:1009D0001CD1002C00D0FBE0002800D174E101F014
:1009E0001FFA2030031C0B3B1C2B00DD44E21D21B1
:1009F0000838CA1A291C8440D1400C438540B748A6
:100A0000C21A90460022934601920EE0B4488045F7
:100A10003AD0802043031C43B2496A0F0020E4000F
:100A20001443ED00884483460190391C4B003F037A
:100A3000CA0F5B0D301C3F0B9246002B2ED1002FAE
:100A400000D0C9E0002E00D144E101F0E9F92030E6
:100A5000031C0B3B1C2B00DD08E21D210838CA1AC1
:100A6000311C8740D1400F4386409C484946C31AF9
:100A70005046484000220290584610430F2823D881
:100A80009949800041588F46002C02D1002D00D199
:100A900014E10C239B4603230193C6E7904A93423B
:100AA00000D18CE08020420317438E48710FFF0075
:100AB0000F43F6001B18002250464946484002905A
:100AC000584610430F28DBD94046C11A0591BC4255
:100AD00000D8E2E061086B08E4072343ED078A468B
:100AE00001930395350E3F022F43B8B235023E0CF9
:100AF0008146311C5046FFF7FDFA49464143041C2C
:100B000088465046311CFFF739FB019A0904130C43
:100B10001943884507D9C919013C8F4203D8884534
:100B200001D9013CC9194346CB1A181C311C9B46FC
:100B3000FFF7E0FA4946414380468A465846311C51
:100B4000FFF71CFB68460B04011D0A8813439A45F6
:100B500006D901225242DB1990449F4200D8A7E1F6
:100B60004146240450460C43A1B2AAB21B1A280CD9
:100B7000904682464A434843019283465246200C9F
:100B8000414641435043019A120C94468C44DC4444
:100B9000614502D980214A0280186246110C120474
:100BA00094464018019A51490A4062440192834296
:100BB00000D2AFE0834200D1A8E0039AC2E0002F48
:100BC00001D0032278E7002EFBD1371C022273E705
:100BD000201C01F025F905E7381C01F021F937E761
:100BE000029B3F4A00240026414F002000210F4075
:100BF000301C404E27433E4012053F4C16432640D2
:100C0000311CDB0707B019433CBC90469946A2460D
:100C1000AB46F0BD029B002200240026E4E75146CB
:100C20003C1C0291022ADBD0032A00D18BE1012A6D
:100C3000F0D0059A31481318002B00DC3EE10F2755
:100C40003740042F04D0351DB542B641A41B2E1CDD
:100C5000E20102D52A4901330C402A4A934200DCC2
:100C600010E1029B013200240026BDE780231B0314
:100C70001C421FD01F421DD13C1C1C43534608E0A0
:100C80004A4602922E1C019ACCE701251E4C0023F5
:100C90006E421D49124A0C40A6E7B54202D9BC4239
:100CA00000D117E705980022013805900195A2466A
:100CB000039217E71C432E1C4B46EAE708218B469C
:100CC00002212C1C0191B0E604218B460121041C59
:100CD0000191AAE6371C0122EEE6C04602FCFFFFA6
:100CE000FF07000001FCFFFF40A90008FFFF000014
:100CF0000000F0FFFFFF0F80FFFFFF7FFF030000FA
:100D0000FFFFFFFEFE070000FFFF0F000399914267
:100D100000D352E70399013C4A19AA428941791A42
:100D20008B465B449F4203D3BB420BD1954209D80B
:100D3000984200D8AFE05219AA428941791A8C46EC
:100D4000013C63440199181A511A8A429B41C01808
:100D500083460191BB4500D1D5E0311CFFF7CAF9AC
:100D60004A4642430390311C58460492FFF706FA64
:100D700001980A04030C0499134399420AD9039A6F
:100D8000DB19013A03929F4204D8994202D9013AF1
:100D90000392DB190498311C1B1A181C0493FFF7EB
:100DA000A9F949464143834689460498311CFFF717
:100DB000E5F96A46131D1E8809043143894509D99E
:100DC00001267242C91993448F4203D8894501D93B
:100DD0009344C91903985A4606044B461643B2B2C7
:100DE0005046C91A43465343504301938346330C3C
:100DF0005046584342465A43814601989046020C59
:100E00009246C2445A465244904502D98023580221
:100E10008144130C1204904601984D4A9C464B465F
:100E200010406344804499420BD34246501E824195
:100E3000994204D0994269D001210E43F9E6002A73
:100E4000F8D0C919013E8F422DD88B4203D88B426E
:100E500029D1454527D26A00AA42AD4140467F1BB1
:100E6000821A013EC919501E8241E3E7071C283F40
:100E7000BE40371C0026F8E5041C283CA5402C1C6D
:100E80000025BCE56207F6081643324A64021A40A0
:100E9000240B029BA8E6984200D053E701999142A7
:100EA00000D84FE747E740462A1A501E8241C1E763
:100EB0009A4500D854E69044DB1951E60120C31A44
:100EC000382B00DDA6E61F2B24DC2022D11A201CA3
:100ED000351C88408E40DD400543371C781E874115
:100EE0002E1C3E43DC400F233340042B04D0301D26
:100EF000B042B641A41B061C21021AD5029B012256
:100F00000024002670E60120464292E6002A00D125
:100F10008FE691E7202B14D04021CD1A271CAF403B
:100F20003D1C2E43203BDC40721E9641264300248C
:100F3000D9E76207F60864021643240B029B0022DD
:100F400052E60025EDE780252F033C43029BA0E6F7
:100F5000FFFF0000FF070000F0B594461A030D03E1
:100F60004C00061C170BC80FDA0F5900134B640D09
:100F70002D0B490D9C4213D0104B994215D08C4239
:100F800001D00120F0BDBD42FBD16645F9D19042B0
:100F900011D0002CF5D13543281C431E9841F1E7B0
:100FA000002DEED1002EECD1E6E7002FE9D163460B
:100FB000002BE6D1E3E70020E4E7C046FF0700008E
:100FC000F0B557464E464546E0B491461A030D0328
:100FD0004C00061CC80F110B8C46DA0F5900304B21
:100FE000640D2D0B490D9C4248D02D4B99424CD09D
:100FF000002C17D000239A46002905D16746002F00
:1010000002D14B46002B13D00027B8465346002B85
:1010100013D0002A18D1012670421CBC9046994674
:10102000A246F0BD2F1C37437B427B419A46E3E743
:101030005746002F30D00020EFE74746002F01D160
:10104000904203D00028E6D10120E6E78C42F9DC8B
:101050008C420FDB6545F5D86246AB1A5A425341C4
:10106000002B01D04E45EDD8654503D3002BE2D0CF
:10107000B145E0D90028CED00120CEE7002D01D126
:10108000002EB2D002204042C7E76346002BF9D1C0
:101090004F46002FF6D1ABE701239846B6E7C0468E
:1010A000FF070000F0B557464E464546E0B494466B
:1010B0001A030D034C00CF0F061C5900100BDA0F5A
:1010C000314B640D2D0BB946490D9C422CD02E4B53
:1010D000994211D0002C17D00027BA46002901D11F
:1010E00000282AD00027B8465346002B12D0002AE9
:1010F00018D10120404202E000281AD002201CBC76
:1011000090469946A246F0BD2B1C33435F425F4197
:10111000BA46E3E74746002F17D191451AD04F460C
:10112000002FE6D10120EAE7002DE7D1002EE5D11E
:10113000CDE76346002BE1D1CCE76346002BD1D14C
:101140005746002F1DD00020D9E74B46002BD0D1A9
:101150000120D4E78C42F8DC8C420EDB8542F4D8C7
:101160002B1A5A425341002B01D06645EDD88542D7
:1011700003D3002BE7D0B445E5D94F46002FB8D0B4
:10118000D0E701239846AFE7FF070000F0B55F46C0
:1011900056464D464446F0B41F1C4B00161C0C032B
:1011A0005B0DCA0F8BB0051C240B98469146002B93
:1011B0001CD1002C00D02EE1002800D19EE100F0CF
:1011C0002FFE2030031C0B3B1C2B00DDC1E11D2139
:1011D0000838CA1A291C8440D1400C438540CA48AB
:1011E000C21A90460022934603920EE0C7488045FB
:1011F0003DD0802043031C43C5496A0F0020E40012
:101200001443ED00884483460390391C4A003F0391
:10121000CB0F520D301C3F0B9A46002A31D1002FC4
:1012200000D0FCE0002E00D18AE100F0F9FD203072
:10123000031C0B3B1C2B00DD85E11D210838CA1A5D
:10124000311C8740D1400F438640AF480021C21A6D
:10125000484653464340584608430F2826D8800046
:101260008346AC4884465846604400688746002C54
:1012700002D1002D00D15DE10C239B460323039393
:10128000C3E7A24B9A4200D1BCE0802043031F4336
:101290009F48710FFF000F43F600121800214846C7
:1012A00053464340584608430F28D8D94244049235
:1012B000AAB29446B0B26146360C714342438946A5
:1012C000290C93460A1C42430D1C754390465A460E
:1012D000AA46150C4D4445440195A84500D9FEE0A9
:1012E000019D2A0490465A4695B24544BAB20595E6
:1012F000654655433F0CA94665467D43AC460D1CEB
:1013000055437943AB464D468846290C61445944C0
:101310008B4502D980256D02A8440D0CAC464D4684
:10132000ADB20904C444A8468844A1B20D1C45438B
:10133000A9460D1C7543240C03954D462D0C6043A6
:10134000AB46039D6643AB448344584502D9802590
:10135000680236185D46280C361828044D46ADB292
:10136000A9460D1C554362437C437943A3462C0C8C
:101370000F19B9184844A9468A4202D980277A022F
:101380009344019F0D043A0C424452444245A44107
:10139000A8464D46AFB2B84445461218644265446B
:1013A0006545BF41824280412D194042A542A4417A
:1013B00082467F42701964423C43B042B6410D0CF4
:1013C000504461195045A441764267423743CC19D5
:1013D0004502D10D29435502059A5C446402C60DAD
:1013E00015436A1E954134430D43E70123D5049A02
:1013F000012668083540E1070132054304920D4398
:10140000640818E0002F01D0032148E7002EFBD12B
:10141000371C022143E7201C00F002FDD2E6381CF5
:1014200000F0FEFC04E703991A1C02291BD00329D3
:101430004DD001295ED00499374FCA19002A54DDD6
:101440000F202840042804D02E1DAE42AD41641B5D
:10145000351CE00102D5314901320C4030498A4245
:1014600000DC7CE01A1C294E002400252D4F0020B2
:1014700000210F40281C2C4D27433D4034052B4BA9
:1014800025431D40D607291C0BB031433CBC904678
:101490009946A246AB46F0BD52463C1C351C53460D
:1014A000C3E71A1C3C1C351CBFE780231B031C42EE
:1014B00019D01F4217D13C1C351C534607E04A4641
:1014C0004B460399B1E70125194C6D420023802258
:1014D0001003174904430C401A1C0C4EC6E7802227
:1014E0005502AA44FCE64B46F1E70120821A382A4D
:1014F0003EDD1A1C002600240025B7E704218B4698
:101500000121041C039180E602FCFFFFFF0700009D
:1015100001FCFFFF80A90008FF030000FFFFFFFEA2
:10152000FE0700000000F0FFFFFF0F80FFFFFF7FBE
:10153000FFFF0F0008218B4602212C1C039164E65B
:10154000371C0121ABE6071C283FBE40371C002694
:101550007BE6041C283CA5402C1C00253FE6214EC0
:101560006707ED08640216403D43240B1A1C7DE713
:101570001F2A1DDC2026B11A201C2F1C88408D40FC
:10158000D7402E1C0743751EAE413D1C3543D44049
:101590000F222A40042A04D02E1DAE42AD41641B06
:1015A000351C220213D51A1C0126002400255DE7F4
:1015B000202A14D04020811A271C8F403E1C35431E
:1015C000203AD440691E8D4125430024E0E7670797
:1015D000ED0864023D43240B1A1C002646E7002652
:1015E000EDE7C046FF070000F8B557464646C0B4D1
:1015F000041C0F03CD0F4E00780A610F0843171C1F
:10160000AC4680465D001803D90FBE4B400A520F0E
:10161000FF006D0D760DE4001043BA469D4200D1E7
:10162000F6E001235940721B8C4500D19CE0002A52
:1016300000DC10E1002D14D1002803D1514600290F
:1016400000D1F1E0013A002A00D069E15346E21AE4
:1016500045462B1A9442AD415B19141C351C664655
:1016600024E0A84B9E4200D1EAE080210F043843D9
:10167000382A00DD1CE11F2A00DD67E120218F1AD6
:101680005346011CD340B94019435346BB401D1C6F
:101690006B1E9D41031C2943D340611A42468C4274
:1016A000A441D01A0319351C0C1C6646190200D43B
:1016B000CFE0954F1F40002F00D1EBE0381C00F029
:1016C000AFFB021C083A1F2A00DDECE02020211CA1
:1016D000831A9740D9400F439440954200DDB5E00E
:1016E000521B01321F2A00DD1FE12023991A201C02
:1016F0003D1CD0408D408C400543631E9C413B1CEB
:101700002C43D340002501220F21214004295FD022
:10171000211DA142BF410124DB1B6A1C26400C1C79
:10172000190259D47749101C5F07E40808402A1CA5
:101730003C43DB0801285DDD74480A400340744DDA
:10174000002000210D406F49201C0A401405714AF9
:101750002B431A40704B22431A40F607111C3143A9
:101760000CBC90469A46F8BD002A00DCAFE0002D84
:1017700055D0644B9E4263D0802739040843382AF1
:1017800000DC22E1002803D15146002900D177E195
:10179000002301210819A042924143449B1A041CD2
:1017A000351C1E020ED5574A0135954200D161E124
:1017B0005A49012626400B406708341CD8073C4391
:1017C00004435B080F2121406A1C664604299FD10F
:1017D000012006401902A5D54A498A4257D04F4DEB
:1017E00048492B40501C5F07E40808403C43DB0895
:1017F0000128A1DC002C01D1002B07D0002A62D0E7
:10180000802742493D032B430B403E490A4096E75F
:10181000002800D007E7002F00D004E701E70028E8
:1018200007D15146002904D1721C351C4346664637
:101830006AE7013A002A00D1E4E0324B9E429ED191
:101840008027434666463A012E4D5DE7334BAD1A7D
:101850003B406A1C58E7002A00D087E0294D771CDE
:101860002F40012F00DCEBE05246A31A45462F1A09
:101870009C429241BF183A0200D49EE053461C1B82
:10188000401BA2459B41351CC7180E1C13E70023C3
:10189000002454E7201C00F0C3FA2030021C083A50
:1018A0001F2A00DC12E7271C28388740002414E791
:1018B000002805D15546002D02D100230021ECE679
:1018C00000230121E9E6114A1340002237E7002AEC
:1018D00000D0E9E0751C0B4B2F1C1F40012F00DCD2
:1018E0009EE09D4200D1C5E051460E194246A642F7
:1018F000A44181180B1BDF0774083C435B086A1C7A
:10190000664601E7FF070000FFFF7F00FFFF0F00B3
:101910000000F0FFFFFF0F80FFFFFF7FFFFF7FFF53
:10192000C34B9E4200D0A3E68AE7202A74D0402011
:10193000811A3D1C8D402B1C1C43203A631E9C4188
:10194000D7403C43012200230025DDE6202A65D054
:1019500040239F1A051CBD40291C53461943203AB9
:101960004B1E9941D0400143002396E65242002E7F
:101970003DD0AF4B9D4200D1B8E0802346461F04C6
:101980003E43B046382A00DDC3E01F2A00DD65E192
:101990002026B31A4746261C9F409C40D640631E13
:1019A0009C413E4343463443D3405246141BC21A23
:1019B000A245804113180E1C78E6002F01D1002BA0
:1019C00052D0351C1C1C664675E61F2A5BDC2021A4
:1019D0008F1A051C5146BD40D14029435546BD4094
:1019E0002B1C5D1EAB411943031CD340D2E643467A
:1019F000002B00D081E0002C7FD16A1C031C5446D0
:101A00000E1C81E653461A1945464719A242A441C5
:101A10003B1B351C141CC4E600238DE700219CE70A
:101A2000002E00D0DDE04346002B00D03BE1002C2F
:101A300000D038E1031C544666460122002563E6C7
:101A40004346002E3FD1002B00D08FE0002C00D069
:101A50008CE0002802D15546002D05D0031C5446C9
:101A60000E1C012200254FE600260122002304213E
:101A7000002554E6802066460201002304214EE63C
:101A80000023002186E6202A00D1E5E04025AF1A98
:101A9000031CBB40191C55462943203A4B1E994153
:101AA000D0400143002375E65242002E3AD143460E
:101AB000002B00D0E5E0002C00D0E2E06A1C031C03
:101AC0005446664620E6002B69D1002C67D10028D9
:101AD0000CD15646002E09D1802404212201554BF9
:101AE00049421CE6524B9D4200D04BE78022031C2A
:101AF00054460E1C12014E4D06E6013A002AF1D161
:101B00005646341B4246861AA245BF41F3190E1CA5
:101B1000CCE54646002E02D1002C00D1AEE00023D9
:101B2000012442E7424B9D4200D189E08026414694
:101B3000370439438846382A00DDACE01F2A00DD2F
:101B4000D2E020239F1A211C4646BC40BE40D14013
:101B5000231C31435C1EA3410C1C1C434346D34051
:101B600054441B18544580411B1A1AE6002802D120
:101B70005646002E6BD05346E21A45462F1A944221
:101B80009B41FB181E0200D4A4E05246141B421BCA
:101B9000A245804113180E1C01220025B4E500283F
:101BA00003D15246002A00D14AE645466E07EA08AC
:101BB0008025E4082B0334431A4200D188E0C5088D
:101BC0001D4200D084E05646F40847072A1C3C43D7
:101BD0000E1CD100630F80200B43E4000201144D62
:101BE00092E54646002E01D1002C29D0002803D1D1
:101BF0005246002A00D123E645466B07E4088027B9
:101C00001C43EA083B031A4200D182E0C5081D428A
:101C100000D07EE05646F40840072B1C04430E1CFF
:101C2000620FDB0080211343E4000A01004D6BE5E5
:101C3000FF070000FFFF7F00384B9D4200D07AE78E
:101C400080252A01031C54466646344D5CE5434614
:101C500066460122002557E500211CE7202A56D0C0
:101C60004027BB1A46469E40331C1C43631E9C41C2
:101C7000203A4346D3401C43002396E60023002429
:101C800093E6013A002AD7D1464654448119544577
:101C9000B6418B1B85E54246002A01D1002C33D08A
:101CA000002301245CE7002802D15546002DCED048
:101CB0005646321941464618A242A441331B1D0222
:101CC0000DD51748141C03406646022201251BE56A
:101CD00066467EE7002B02D1002A00D1C4E6141C20
:101CE0006646012200250FE5202A15D04027B91AA3
:101CF00046468E40331C1C43203A4146631E9C419D
:101D0000D1400C4300232BE70023002428E70023C5
:101D1000ABE7131C664683E70023ECE7FF070000F0
:101D2000FFFF7FFF70B54B00124A051C5B0D0803D7
:101D3000040BC90F934214DD0F4A93420EDC0F4E81
:101D400080204203F61A22431F2E0CDD0C48C61ACF
:101D5000F240101C002903D0404201E0094C081950
:101D600070BD0020FCE7084C281C1D19F040AA405B
:101D70001043EFE7FE0300001D04000033040000E1
:101D800013040000FFFFFF7FEDFBFFFF70B5041C95
:101D900000282FD0C50F002D00D04442201C00F099
:101DA0003FF8164B164E181A361A1F2E17DD154B14
:101DB000154E191A154A8C40344002400026144B27
:101DC000002000210B402343124C301C1C40160500
:101DD000114A34431440ED07211C294370BD221CD5
:101DE0000E4BB240161CC118074ACC401440074A9B
:101DF0000240E4E7002500220026E0E71E04000080
:101E00003304000013040000FFFF0F00FF07000071
:101E10000000F0FFFFFF0F80FFFFFF7FEDFBFFFFE4
:101E20001C2101231B04984201D3000C10391B0A0A
:101E3000984201D3000A08391B09984201D30009CE
:101E4000043902A2105C40187047C0460403020225
:101E5000010101010000000000000000F0B55F4634
:101E600056464D464446F0B4041C81461D480D1CA0
:101E7000211C161C0140220C934630400A1C80464F
:101E80004243340C081C6043944682465A464046FE
:101E9000424390465A4662436046C244010C504653
:101EA00093460A181F1C83B0331C904502D9802624
:101EB0007002834449467943100C6B438046664662
:101EC00012049246C344B0B250445A46CD18009012
:101ED000019203B0A9183CBC90469946A246AB4675
:101EE000F0BDC046FFFF000038B5041C002828D014
:101EF000FFF796FF144B154D181A2D1A1F2D15DDDF
:101F0000134B144D191A144A8C402C4002400025E2
:101F1000124B002000210B40281C114D23431205B9
:101F20001D4015430F4C291C214038BD221C0E4B6F
:101F3000AA40151CC118074ACC401440064A02406A
:101F4000E6E700220025E3E71E040000330400005A
:101F500013040000FFFF0F00FF0700000000F0FF68
:101F6000FFFF0F80FFFFFF7FEDFBFFFF0D48854662
:101F7000002103E00C4B5B58435004310B480C4BE1
:101F800042189A42F6D30B4A02E00023136004324F
:101F9000094B9A42F9D300F0E7FA04F071FC00F023
:101FA00097FAFEE70020002020C40008000000206F
:101FB000AC0E0020AC0E0020E8180020FEE7000068
:101FC000F8B52D4A501C131DFF301A78012A14D081
:101FD000002A04D0022A1ED0032A45D130E01A1F5D
:101FE000598814685A688900511803E01588568882
:101FF000043266518A42F9D338E01A1F59881468AE
:102000005A68C900511803E01568566808326651CD
:102010008A42F9D32AE059881A1F4C0015686118C2
:102020005A688900511808E0148857682C192668E6
:10203000BE4397680C323E4326608A42F4D315E0D3
:1020400059881A1F4C00156861185A688900511880
:1020500007E0148856682C59B4439668A64209D103
:102060000C328A42F5D301E004F0FCFB0C338342CE
:10207000ABD100E0FEE7F8BD68AA000800B583B068
:102080000DE01A4A8023918A5B004B409382002323
:1020900001E0019B01330193019B632BF9DD144B9C
:1020A0005A680C231340082BEBD10DE00F4A802314
:1020B000918A5B004B409382002301E0019B013336
:1020C0000193019B632BF9DD094B5A68D103EDD4D1
:1020D0005B6803B09B021B0F02335A01D21A9001B6
:1020E000821AD200D318180200BDC046000800486A
:1020F0000010024008B5024800F0A8F908BDC0462B
:1021000064AC000808B5024800F0A0F908BDC0465C
:1021100094AC000808B50B4B1A6801321A600A4AE1
:102120008023918A5B004B40938201F0A3FF00283B
:1021300001D001F0C3FF00F09BF9002801D100F0AD
:10214000BDF908BDF80E00200008004830B5254A4A
:10215000802351691B03244C0B4353612268A02345
:10216000DB01134323608023DB03402583B0A5619B
:10217000A361FFF783FFFA218900FDF7BBFF1B4A2C
:102180001B4B10401B4901385860086A1040C022A0
:10219000120602430A6200229A6007221A60A561B1
:1021A000FFF70EFF0DE010498023888A5B00434053
:1021B0008B82019202E0019B01330193019B632B0F
:1021C000F9DD0B4B1A6801231A40ECD0064B802234
:1021D000D2039A6162B68022996912010A4303B060
:1021E0009A6130BD0010024000080048FFFFFF0068
:1021F00010E000E000ED00E00549FA2300229B001A
:102200000A704A704B6003490A704A704B6070470D
:10221000B00E0020FC0E002070B5404B1A68002A5A
:1022200002D13F4A12681A603E4C3F4D8021802304
:102230008900A161281CA36100F040FC3B4E802373
:1022400080B21B043080A36100282DD0AA89082AFF
:1022500010D1902480235B00E405A361012000F0ED
:1022600095FE80235B04A3613388002B08D001F026
:1022700061FC05E0C123DB009A4201D101F088FD39
:102280002A4D298800290FD0902480239B00E40543
:10229000A361274804F016FB0023E95E224800F002
:1022A000C5FB80239B04A3611E4A80239B0493618A
:1022B0001A4B1B4A1B681068191C3231884202D81D
:1022C00012689A4228D2174C80239B00A361A38AEC
:1022D00080256D006B40A382164A174B02201A60BE
:1022E00000F054FEA38A5D40A582104C2388002B89
:1022F0000AD001F01FFC2188104804F0E3FA002303
:10230000E15E094800F092FB064A80239B0493613A
:10231000034B1A68014B1A6070BDC046C40F002001
:10232000F80E002000080048A01500209415002099
:10233000CCAC0008B0170020AC170020E4AC0008BB
:1023400010B5074C0748218804F0BCFA01F0F2FBF5
:102350000023E15E044800F069FB002010BDC04688
:1023600094150020FCAC0008A015002010B582B028
:10237000FFF784FEFA218900FDF70AFF1D4A90420B
:102380000ED81D4B104001381C495860086A104097
:10239000C022120602430A6200229A6007221A60D3
:1023A000174C8023A361174800F0E8FA80231B0430
:1023B000A36100F0F5FC144802F0D8F801A90A2343
:1023C0000B7000234B708B700223CB7004220F48DC
:1023D00004F0B5FC01F050FD0D48002101F008FEAD
:1023E0000C48002101F004FE0B48002101F000FE22
:1023F00002B010BDFFFFFF0010E000E000ED00E0C4
:10240000000800481CAD0008412300080418002003
:102410004C0500206C0500203806002008B5FFF7A9
:10242000A5FFFFF7F9FE8023014A5B055360F8E73B
:1024300000ED00E008B5034B03481968443900F08B
:1024400041F908BDC4AC0008440F002030B5436812
:1024500002681978908C4D1C3F225C781540A5428B
:1024600005D0C9180872197801310A401A7030BDB8
:102470000020704710B505E002681385D3691C067B
:10248000FCD501310B78002BF6D1002010BD10B522
:1024900002AC2478017042708370C47010BD0000DB
:1024A00000B583B000230448002100220093FFF709
:1024B000EEFF03B000BDC046C80F002000B5034BBF
:1024C0001A68511C01D0013A1A6000BD00050020B5
:1024D00010B5FFF73BFE1E4B40229A6172B61D4BB2
:1024E0009A681D4B1B6862B65C01E41AA400E418EC
:1024F0001A4BE400E4181A4B9A1A9204120DA4180D
:1025000001E000F0D1F872B6124B9A68124B1B68CA
:1025100062B613498A1A5901C91A89009204CB1864
:10252000120DDB00D318A342EBD3094C8023DB034D
:10253000A361FFF77FFF04F0D1F84023A36104F00B
:102540004DF9084B002BFAD000E000BFF7E7C0467A
:102550000008004810E000E0F80E0020888A010022
:1025600080BB00000000000010B5244B01211A6858
:102570000F240A431A605868214A02405A601868BA
:10258000204A02401A6018681F4A02401A605868C0
:102590001E4A10405860D86AA043D8621C6B1C4881
:1025A00020401863586B884300215863996019498B
:1025B00011200860596859605968596059680A4083
:1025C0005A605968A02292030A435A60196880220F
:1025D00052040A431A60094B1A689101FBD55A68E4
:1025E00003218A435A60596802220A435A60034B06
:1025F0005A680C231340082BF9D110BD001002407B
:102600000CB8FFF8FFFFF6FEFFFFFBFFFFFFC0FF68
:10261000ACFEFFFF0020024000B5064B1A68002AFE
:1026200001D1054A1A60034A136818181060181C73
:1026300000BDC046CC0F0020E81800200120404219
:10264000704780239B0100204B607047012070473A
:1026500001204042704701204042704710B50A4BAC
:1026600008201860103310201880131C07E00C7825
:10267000064804850548C0690406FBD50131013BC5
:10268000F5D2101C10BDC04618040048004400409C
:10269000704701204042704708B5011C014804F012
:1026A00011F9FEE724AD000800B5044B1B68002BB0
:1026B00003D08023024A5B05536000BD90150020C3
:1026C00000ED00E0074B19606A4682F30988022298
:1026D00072B6EFF31483134383F3148880F30888EE
:1026E00062B6704790150020EFF309802438011C72
:1026F00052465B46FCC144464D46764670C1074B88
:1027000072B61968186062B6FCC99B4692460DC93C
:102710008046914681F309881847C04690150020ED
:1027200062B630BFFDE7000072B6FFB4034B044A47
:102730001B689D469646034B9F46C04640AD000829
:10274000BD1F00082127000870B50F4A6023041C34
:1027500015781C40A54215D01D406D1166112B1C2B
:10276000B343191C04D0C9B2BF20002200F0F0F915
:10277000AE43351C04D0E9B29F20002200F0E8F9F6
:10278000014B1C7070BDC046D00F002070B5051CF9
:102790000C1C161CA02801D0802825D1F0235B003A
:1027A0002340402B0BD0402B04DC002B07D0202BE8
:1027B0001AD104E0602B02D0802B15D103E06020F9
:1027C0002040FFF7C1FF1F2323401D43F1B2281C07
:1027D000002200F0BDF9A30508D53612F1B2281C7D
:1027E000002200F0B5F901E004F03CF870BDF8B546
:1027F000F0235B000340041C0D1C602B16D0602BE3
:1028000006DC202B12D0402B10D0002B0ED047E03E
:10281000C02B0BD0C02B02DC802B41D10AE0E02B77
:1028200004D08022520093423AD11AE06020204026
:10283000FFF78AFF1F26201C40273B1C304018430F
:10284000C0B2E9B2002200F083F9A3052AD5013411
:10285000264037432D12F8B2E9B2002200F078F991
:1028600020E0D420FFF770FF1F21214000225420D8
:1028700000F06EF9E9B2002256202D1200F068F93E
:10288000E9B25720002200F063F9EA20FFF75CFF6D
:102890000A200021012200F05BF9C307F8D401E00F
:1028A00003F0E0FFF8BDF8B5F0235B000340041C23
:1028B000602B1AD0602B06DC202B16D0402B14D0B6
:1028C000002B12D056E0C02B0DD0C02B02DC802B89
:1028D00050D106E0E02B06D080225200934249D12D
:1028E0001AE0002506E0012500E0002560202040D8
:1028F000FFF72AFF1F27201C384000212A1C00F068
:1029000027F9061CA30537D5601C384000212A1C76
:1029100000F01EF900022BE0D420FFF715FF1F2165
:1029200021400022542000F013F9522001210022FE
:1029300000F00EF9EA20FFF707FF0A20002101222C
:1029400000F006F9C307F8D4D220FFF7FDFE0021FE
:102950000022522000F0FCF800210122192000F092
:10296000F7F80021041C0122182000F0F1F82602DB
:10297000064301E003F076FF301CF8BD30B5294B6B
:10298000402283B0041C9A61012508E05D40002DBF
:1029900002D18023DB0300E04023224A93619D2083
:1029A000FFF781FF01231842F0D06179E120FFF7A2
:1029B0001EFF2179E020FFF71AFFE178E320FFF7FF
:1029C00016FFA178E220FFF712FF6178E520FFF7FC
:1029D0000EFF2178E420FFF70AFF134C251C8035F9
:1029E00004E02088A178FFF702FF0434AC42F8D15C
:1029F00080204000FFF757FF80231B02041C1C406F
:102A0000F6D18820802140004900FFF7F0FE01A99F
:102A10000C704C707A200222002300F0F1F803B011
:102A200030BDC0460008004848AD000870B51F4BD7
:102A30004022061C0D1C9A6114E01C4C8023A361EB
:102A40005B00A36180209F218022FFF79FFEA020D2
:102A50009F218022FFF79AFE80235B04A3618023DD
:102A60001B04A3619F20FFF71EFF0307E5D4104856
:102A70001049FFF7BCFE2A1C311C00237A2000F00D
:102A8000BFF88120D02180004901FFF7B0FE094B3B
:102A90000948E918FFF7ABFE80209F210822FFF7C5
:102AA00075FE024A8023DB03936170BD0008004875
:102AB00002020000011A000006020000F0B583B017
:102AC000019039200F1CFFF7EEFE002801D10024F1
:102AD00034E01C4E1C4C80256D00A561311C062283
:102AE00001233A2000F08CF880235B04728836883A
:102AF000A3619023DB059D613C1C974200DD141C03
:102B000022B23A200199012300F07AF89023802222
:102B1000DB05520480209A618000311CFFF767FEBC
:102B2000002E01D1094900E0711E83208000FFF7CB
:102B30005EFE80209E214022FFF728FE03B0201C6D
:102B4000F0BDC046D40F002000080048FF19000067
:102B5000F0B5274C8023DB03A36180235B0003E0F7
:102B60009B89234C80231B04A361224BC0241D8915
:102B7000E4002C40F4D11E4E80256D04B5611F8801
:102B800040253D431D80090280252D040843B56181
:102B90009881002A01D00C331C70154B802199615B
:102BA000144B1B891806FBD4124B1989C807FBD597
:102BB0009889002A01D1000A09E00E4B1A89C02326
:102BC000DB001A42F9D00C4B187800E09B89094BC6
:102BD000C0221989D2001142F8D11988074A0A4047
:102BE0001A80034A4023936180231B049361F0BD44
:102BF00000080048003800400C380040BFFF0000CB
:102C0000F0B53D4E8024E403B461802483B06400B9
:102C100001920D1CB46100E0A489384CC0262789BC
:102C2000F6003742F8D1344F80267604BE61228800
:102C3000402616432680324E30700888A0818020BE
:102C40000004B8612D480489C020C0000442F9D0B6
:102C50002B48802400782848023184614024846114
:102C6000019A1CE08020244C0004A06123480489C0
:102C7000A607FBD5204C8026A6610E888681802081
:102C80000004A0611D480489E607FBD51A4C802684
:102C9000A6618089002B01D0288002350231023ADA
:102CA00092B210B20028DDDC8022134952008A6102
:102CB000124A1189C02252011142F9D10F4A1289D8
:102CC0001006FBD40D4A1189CE07FBD59289002B43
:102CD00002D02A8000E09B89084BC0221989D200CB
:102CE0001142F8D10449802252048A611988054AA8
:102CF00003B00A401A80F0BD0008004800380040C8
:102D00000C380040BFFF000070B5C278144B8A1821
:102D1000DA7086780D0AAE19F6B29E7044785C704F
:102D200002781A70AE4206D2601CC0B258700028F9
:102D300001D101321A700A4BC9B2DA788A420EDA2E
:102D40009A780132D2B29A70002A08D15A780132A8
:102D5000D2B25A70002A02D11A7801321A7070BDAC
:102D60009C15002010B5013A8A180BE00B784C78BE
:102D70001B021B199BB2C01880B2984201D20130CD
:102D800080B202319142F1D3914207D10B781B02FC
:102D9000181880B2984201D2013080B210BD0000F4
:102DA00000B5002305E00F4A590000200133885286
:102DB000DBB2132BF7D90C4B00225A7680230B4A37
:102DC000DB001380002308E09A00D2180849920023
:102DD0005218013300219180DBB2092BF4D9054A46
:102DE000137000BDD4170020B0170020EE0F002094
:102DF0000C180020F00F002030B500230CE0094A29
:102E000059008D5A5C1CE4B2854204D10648037017
:102E100000238B5204E0231C132BF0D9024A1370B9
:102E200030BDC046D4170020F00F002010B5084C6C
:102E3000011C20680830FFF767FF064A23681178F5
:102E400019725178597291789972D278DA7210BDEC
:102E5000AC1700209C1500200302000A184380B222
:102E60007047000010B5094900201422FFF77AFFCF
:102E7000041C211C064803F025FD002C01D1054847
:102E800002E0201CFFF7E8FF10BDC046AE15002091
:102E900010AE0008FFFF0000F0B5284B83B01C887F
:102EA000061C01910134264BA4B29C4201D9802416
:102EB000640100250BE0201CFFF7CEFFBB00DF19EB
:102EC000204BBF00FF18BB8801358342EAD0EFB228
:102ED0000A2DF0D1194B00221C801B4B1A700023C5
:102EE00010E09D001749ED18AD006D18A9885A1C17
:102EF000D2B2002905D1144A2F1C1370002D07D11E
:102F000019E0131C092BECD90F4A0027137012E0AB
:102F100023026A46240A1C43131D1A88AC80EA80E7
:102F2000002E01D12E6004E0281C311C042203F085
:102F300006FF40232B7203B0381CF0BDEE0F0020BB
:102F4000FF7C00000C180020F00F002038B50D4C5D
:102F50000822E578A378143D1B02ED18ADB2A81D38
:102F6000211C0C3180B2FFF7FDFE211C14312A1CFC
:102F7000FFF7F8FE002801D1034801E0FFF76CFFDE
:102F800038BDC046AE150020FFFF0000F0B5AA4EC8
:102F900083B03468042800D187E1A84DA849A94A24
:102FA0000D601560032812D1627E0F231340032B9E
:102FB00005D1238A002B01D000F09EFD7CE0022B7E
:102FC00001D000F099FD263D0023EB779FE2022817
:102FD00077D19D4BDA780132D2B2DA70002A0ED165
:102FE0009A780132D2B29A70002A08D15A78013206
:102FF000D2B25A70002A02D11A7801321A70934A5A
:1030000000231380924A1380637E052B01D0072B87
:103010000BD1A37E0133DBB2A376782B01D000F075
:103020006BFD0023637600F067FD002B01D100F0FB
:1030300063FD228A002A39D0A27E511EA176002A81
:1030400001D000F059FDE27E082A05D0013BDBB239
:10305000012B0BD8052A09D1002363767D4A8023F2
:103060005B42137001F072FB00F024FC042A01D9CA
:10307000302202E003239340DAB2E37EA2760133EA
:10308000627EE3760F231340013B072B01D900F04A
:1030900033FD714A9B009B589F46002234E26D4BE2
:1030A00004221A7001F052FB00F041FC0F22134081
:1030B000032B01D000F020FD664B08221A7000F0AF
:1030C000ECFB052813D1654B1B689B88002B01D1B5
:1030D00000F012FD0C3D15605D4A002313805B4A31
:1030E000336013805B4B08220D601A70DBE0283DD3
:1030F0002B78452B01D000F0FFFCAA78EB78120268
:10310000D218524B19888A4201DD00F0F5FC1A8072
:10311000AB79980601D000F0EFFCEB79002B01D0E1
:1031200000F0EAFC4E494F4B0A881C88A24203D1AA
:1031300049885B8899420CD04B4B1988914201D049
:1031400000F0DAFC5A88464B5B889A4201D000F0C6
:10315000D3FCFFF787FE454B061C984201D000F0D8
:10316000CBFC6B7A062B00D1D0E0112B24D0012BA5
:1031700001D000F0C1FC3E4B1A7D082A01D000F0BE
:10318000BBFC00221A753B49DA8A8A4201D909320E
:1031900000E008323848DA82041C1A34211C042268
:1031A0001E3003F0CCFD201C2D49042203F0C7FD86
:1031B00040232B7200F07AFC244B1A881C3A1A80A8
:1031C0002B4AD38A002B01D100F096FC2B49234BCC
:1031D0001960244B5E882A4B19885F88019123E08F
:1031E000998800291DD0D08A88421AD1D98800290F
:1031F00002D0908A884214D11988A14202D15888FD
:10320000B04243D0019DA94202D15888B8423DD076
:103210001C480588AC468C4503D1408859888842B3
:1032200034D00E4914330B600C4B17491B688B428A
:10323000D6D300F061FCC046AC170020D6150020A4
:10324000A817002098150020E80F002094150020F2
:1032500008180020A0170020C8AD0008A4170020FF
:10326000041800200CAE0008BE150020FFFF00006F
:10327000AE150020F6FF0000A01500200C1800205D
:1032800008AE0008BA150020D4180020BF4A002359
:103290001360BF4A02211170BE4ABF490A60BF498C
:1032A0000A60BF4A138001F051FABD4B1A88002A08
:1032B00001D100F021FC131CBA491C33BA4C9BB25B
:1032C0000B80BA4D190AA170E3702B680832197A85
:1032D00092B22172112161721102120A0A432283F1
:1032E000002262839A88201CA282DB88B049E38294
:1032F00004220C3003F023FD201C10302968042226
:1033000003F01DFDA44B28341C60CFE3FFF71EFE25
:10331000B04201D000F0F0FBEA8A002A01D100F0AF
:10332000EBFBA98A002901D100F0E6FBA14B587EF6
:1033300000280FD0988890420CD1D888884209D1B3
:103340009D4918880C88844204D149885B88994239
:1033500000D1F6E0AB1CD97F3F230B40022B0ED1EE
:10336000964B1A80002306E095495800415A0133D4
:10337000DBB28A4246D0132BF6D9924A1370AB1CAB
:10338000DA7F500700D5B7E31422DA77854B28227D
:103390001A806B1C5022DA77EB7FE87EEB76AB7FEE
:1033A000A97EAB766B7F6A7E864C6B762B7EA97787
:1033B0006A7723702C7F0130C0B22C762B77E877A8
:1033C00000280BD10131C9B2A977002906D10132F9
:1033D000D2B26A77002A01D101332B77AB8A774AC0
:1033E00079481380EA8A041C1A34AA82211CEB82D1
:1033F00004221E3003F0A3FC201C6D49042203F0BC
:103400009EFC40E36B4C637E002B03D16D4B00228E
:103410001A7008E0072B00D000246A4B01221A70B2
:10342000002C00D168E3594B00261C600323A376CF
:1034300023760423A675E375E676EB8A5E49A380BE
:10344000AB8A0422E380201C03F079FC5F4B01224D
:103450006276197801202173597861739978A17384
:10346000DB782282E373EB7EE372AB7EA3726B7E2A
:1034700063722B7E01352372FFF7D8FCEB7FF022BD
:103480001A40502A3FDD4F4A18091670504A053835
:1034900080001278002330E04B4959180A1C36325C
:1034A0001278002A2BD0012A01D1013324E0022A0C
:1034B0001BD10D1C37352D78042D16D141480370D2
:1034C000434B1A700B1C38331A7839310B781202BF
:1034D0001A433A4B111C1A80E5235B009A4200D92B
:1034E000191C8BB26382A3820DE03749591837311A
:1034F0000978002903D0CB18DBB28342CCDB3149F9
:103500000B70334B1A701022274B0233DA77264B9D
:1035100002219A1CD07F0143D177263202211170FB
:10352000013204211170013201211170191C36225F
:103530002B3152420A701B4A2C2111800133602228
:103540006FE2124B1B4A124900201A600870AB1C34
:10355000DB7F5C0703D5202350760B700DE2691CDE
:10356000CC7F104817492409A4000C700188143935
:10357000091B89B20180507E0F220240022A29D104
:103580003F221340122B2BD13BE0C046AC1700204A
:10359000A0170020CA150020A817002098150020A9
:1035A0000818002094150020AE150020A417002054
:1035B00004180020B0170020BA150020EC0F0020DE
:1035C000D4170020F00F0020A0150020E80F0020E5
:1035D000F10F0020012A03D13F221340022B10D00B
:1035E000002903D1AB1CDB7F98070AD0C14B298B84
:1035F0001A89914200D00AE26A8B5B899A4200D014
:1036000005E2AB1CDB7FD9063ED5BA4C218A0029E6
:103610003AD0201C0C30FFF777FBB74B2A7F1E787F
:10362000964231D1687F5A7890422DD1A97F9A78FD
:10363000914229D1EA7FDB789A4225D1E37E267335
:103640006073A173E273002B16D1A27D217EA37E4D
:10365000C91AD308C91AE37DC9B28A18980849B2B1
:103660001B1AC81709184140D2B25B18DBB2A27509
:10367000D208E3759B182376A04B01221A709D4B4C
:103680001A7E9A7600221A829A4B5A7E0F23134092
:10369000013B072B00D92FE299499B005958974BC2
:1036A0008F461A78D10715D5924A032151764021C9
:1036B000197000211182934A1088002803D04222F9
:1036C0001A70FFF7B3FB904B00221A8001F03EF80E
:1036D000884CE4E00235EA7F3F231340022B00D000
:1036E0000AE2844C0FE71B78DA0765D5AB1CDA7F5A
:1036F0003F231340122B5FD16B1CDB7FF0221A405B
:10370000502A41DD814A002118091170804A05388C
:1037100080001278002331E07E4959180A1C3632A5
:103720001278002A2CD0012A01D1013325E0022A87
:103730001CD10C1C37342478042C17D17348037027
:10374000734B1A700B1C38331A7839310B7812020C
:103750001A43714B111C1A80E5235B009A4200D971
:10376000191C644B8AB25A829A820DE06949591831
:1037700037310978002903D0CB18DBB28342CBDB89
:1037800062490B70624B1A705A4C032363762B7E8E
:10379000012023726B7E6372AB7EA372EB7EE372B9
:1037A000FFF744FB554B42221A70564A00232382EE
:1037B0001380554A138070E0504B20221A7000F09D
:1037C000C5FF564B00221B685A76D8E5AB1CDB7F41
:1037D000DC0725D5D00623D4464B1B8A002B00D00E
:1037E0008AE1484C2088013080B2FFF71FFB434B31
:1037F000102219780A4321881A70002902D0022168
:103800000A431A7000F0A2FF3A4C012323820823D6
:1038100063760023E3761122414B0233DA77FAE034
:1038200099060ED5EA1D291CD27F0831C97F3D4B70
:1038300012020A43196889181960324B19888A1ACA
:103840001A80304B188800280AD02A4B5B7EDA0693
:1038500006D42A4B022219780A431A70FFF7E6FAB7
:10386000EB1CDB7F0435EA7F1B029B182A4A9BB2C4
:103870001380204A928A934201D8002B01D1264B13
:103880001A80254B1B4C1B8863821C4B1B789D07A1
:1038900000D131E11C4B00221A8000F057FF174B7A
:1038A0001A782023101C184006D0174B00221A80CB
:1038B000002363761422AFE71021134B114006D08A
:1038C000188001232382042363760023A2E71B8848
:1038D000002B2AD0D00700D52182228A0A4B002A49
:1038E00022D1628A1988914200D91A80064B1B881E
:1038F00023821AE0B01700209C150020A01700209A
:10390000E8AD00089415002008180020F00F0020F2
:10391000F10F0020A0150020EC0F0020AC170020B4
:10392000AE150020A81700201A800023E376764BFE
:103930001A68764B1A60764B1B88002B07D0238AB7
:10394000002B04D0734A28331380182208E0724BEE
:103950001B78990700D4CFE06E4B28221A801022E2
:103960006E4B0233DA7759E01A78D40700D4C3E0FB
:103970006B4A0021517610221A7000F0E7FEBBE07E
:10398000644B1888002801D0FFF750FAAB1CD97F90
:103990000122614B11400CD01978614B114205D0C6
:1039A00007225A7600229A761A8219E006225A765F
:1039B00016E01B7813421CD0594B05225A76198207
:1039C0009AE0544B1888002801D0FFF72FFAAB1C5F
:1039D000DB7FD8070DD5524B07225A7600229A7604
:1039E0000120FFF723FA4C4B10221A7000F0AEFEB4
:1039F0000DE0484B1B88002B09D17DE01B78D907CF
:103A00007AD5474B07225A7600229A7674E002351F
:103A10001023434CEB773F4B28221A803F4B502218
:103A20000133DA773D4D237A281C2B77637A3D49A1
:103A30006B77A37A0422AB77E37A0C30EB77237BA6
:103A40002B76637B6B76A37BAB76E37BEB760623EF
:103A50006B72A388AB82E388EB8203F070F9281CB9
:103A600004221030211C03F06AF9637E2A1D0335FD
:103A7000DC0603D50023D377EB7704E00123EB7753
:103A800036235B42D377254C40232372214B1B887E
:103A90001A0AA270221CE37008320023D377E21DB9
:103AA000D377A384FFF752FAC043A0841B4C45236D
:103AB00023701D4900236370E371A3710A880132EA
:103AC00092B20A80110A627163812171FFF7CAF90B
:103AD000C0436081FFF7C6F9011C144802F0F2FEF2
:103AE0000C4BA2781988E37812021A43104802F0AE
:103AF000E9FE094B002203E0064B00221A80064B28
:103B000003B01A70F0BDC04698150020A817002019
:103B10000818002094150020A0170020AE150020E2
:103B2000B017002004180020E40F00202AAE00087F
:103B30004DAE0008F8B54C4E4C4BF08B1A88311C3A
:103B40001E31904206D14A885B889A4202D1301CCD
:103B5000474979E0444B9A7FE02A0ED101221A703E
:103B600000225A705E229A70DA7FDA705A1CD17F76
:103B700001321971D27F5A7169E03E48DD8B0288AB
:103B800055403D4A1488254206D11C8C4388201C90
:103B900058405388184202D03848394900E0374825
:103BA000042203F0CCF8374B00221A70334B002567
:103BB0001A8835495B8808E00888904202D1488815
:103BC00098423DD001350C31EDB2072DF4D92D4B83
:103BD0001D70082D36D1244CFF21201C062203F035
:103BE000D2F82A4F221C0023203223629380A01D8A
:103BF000391C062203F0A3F8201C391C06221630BB
:103C000003F09DF8301C1D490422263003F097F87C
:103C1000301C04221C30174903F091F880235B000C
:103C2000A382E3810623A3740423E374C123DB008E
:103C3000A381174B258236341C602A22154B11E0D4
:103C4000104B1D7008480431062203F078F8124C1E
:103C50000622201C0D4903F072F80823E3800D4B67
:103C60001A880E321A80F8BDA015002008AE000890
:103C700074AE00080418002000180020581000201E
:103C8000FC17002054100020F40F0020DC0F00204F
:103C9000A817002094150020A6150020F8B5364A74
:103CA0000D1C00211170354A031C51881088344CBA
:103CB000002217E05400324EA418A40034192688BC
:103CC000864202D167888F4209D01F88B74206D149
:103CD0005F886688B74202D1274B1A7043E00132F1
:103CE0000C34D2B2072AE5D9234A002616700022E6
:103CF0000FE05400224EA418A400341926888642EE
:103D000005D166888E4202D11B490A7026E0013235
:103D1000D2B2072AEDD918490A70082A1ED1194AC9
:103D200000211778002000220BE05400A418A40002
:103D3000A619B47A3C1B844201DDE0B2111C0132A9
:103D4000D2B20F4E072AF0D90F4A4C0010700F4A1A
:103D500064181170084AA40011703419201C191C31
:103D6000042202F0ECFF291C201D062202F0E7FFCE
:103D7000044B1B78A372F8BD541000200CAE000851
:103D8000F40F0020F20F0020F30F00205510002048
:103D9000F8B52F4D2B88292B01D8002343E00023B1
:103DA0002C4C2B80A28A80235B009A4204D0802373
:103DB0009B009A424AD138E02749E28C0B889A420C
:103DC00044D1264B5A884B889A423FD1271C261C47
:103DD0001C371636381C311CFFF760FF80239B0010
:103DE000A382311C06221E4802F0A9FF1D490622AB
:103DF000301C02F0A4FF1B490622A01D02F09FFF09
:103E0000236A174923608B880422A380391C134836
:103E100002F095FF381C1049042202F090FFC123E4
:103E2000DB00A3812A232B8010E00B4BE08C198848
:103E3000221C2632884209D152885B889A4205D1D9
:103E4000201C211C1C301631FFF728FFF8BDC0468E
:103E500094150020A015002004180020C61500208D
:103E6000C0150020DC0F0020024B1878421C1A708D
:103E70007047C0465E100020064A76235B421370EE
:103E8000054A00231370054A1370054A1360054A5A
:103E9000136070475E1000205C1000205D10002051
:103EA0006410002060100020F0B50C4D2B78102B12
:103EB00001D1012011E00A4C0F2624781C1934404E
:103EC000084E67003470084E3C19A400A155013318
:103ED000A419A060626000202B70F0BD5D1000206E
:103EE0005C100020691000206C10002000B5002834
:103EF00008D0837B013BDBB2012B03D8024A0123AC
:103F0000C373137000BDC04668100020807B431E41
:103F100098417047F8B51F4B041C1F681E4B0E1CC0
:103F20001D682B1C00E01B68002B31D0A342FAD186
:103F3000201CFFF7EBFF002818D00023A37307E035
:103F4000AC4204D0281C8721221C00F027F82D68E1
:103F5000002DF5D1A368B44208D0002B06D00D4A3D
:103F6000201C14600C308321002298470A4A1368F1
:103F70009C4209D12368136008E01A68A24202D16A
:103F800022681A6002E0131C002BF6D1014B1F605F
:103F9000F8BDC046601000206410002070B5837B1F
:103FA0000126041C0D1C334214D08368002B11D051
:103FB00009490860022181730C30291C9847023896
:103FC000012801D9832D04D1201C211CFFF7A2FF59
:103FD00000E0A67370BDC0466010002038B5034CE9
:103FE0002568FFF7DBFF256038BDC0466010002064
:103FF00008B50B4B0A1C19680B1C00E01B68002B52
:1040000002D08342FAD10AE0834208D00160044919
:1040100083810860012181738121FFF7DFFF08BDE3
:104020006410002010B50E4B1B68002B02D10D4A06
:10403000136013E00C4A5868196812684118891A0D
:1040400006E05C6818682018801A814200D9011CBB
:104050009B68002BF5D1034B8A181A6010BDC0462F
:104060002C11002030110020F80E0020C0684342BF
:1040700058417047024B1868431E98417047C0462C
:104080002C11002010B50C4A041C1368984203D16F
:10409000836813600CE0131C002B03D09A68A242C3
:1040A000F9D103E00023A360E36010BDA2689A6029
:1040B000FFF7B8FFF6E7C0462C11002008B502480C
:1040C000FFF714FF08BDC0464C05002070B50388FB
:1040D000061C002B02D0592B43D105E0244A136063
:1040E0005923338001203FE0872914D1204B1B68DE
:1040F00000E09B68002BF1D0D9689142F9D034E000
:10410000C868904201D00B1C01E0896899609968E9
:104110000029F5D1E4E78229E2D1154B00251C687E
:104120001CE0201C00F0DAF9002815D0E068882196
:10413000221CFFF7B9FE00280CD1E060A368002D17
:1041400001D0AB6001E00A4A13600023A360FFF7CF
:1041500069FFE2E7FFF7B2FF251CA468002CE0D15D
:10416000BEE700230380032070BD01490B60CEE74A
:104170002C11002010B5041CFFF7A0FFE368002BF2
:104180000BD00B4B1B6806E0A34203D1094A12680F
:10419000DA6009E09B68002BF6D1064B1B68E360F0
:1041A000034B1A68A2601C60FFF73CFF10BDC046BD
:1041B0002C1100206010002010B5041C00F088F9BC
:1041C000201CFFF7D7FF10BD10B5041C00F07AF9D2
:1041D000201CFFF7CFFF10BD10B5041C00F06AF9DA
:1041E000201CFFF7C7FF10BD0048704738110020A2
:1041F000416170478161704770B50388051CCD2B04
:104200000BD0D92B1ED0002B39D11F4B852118681C
:104210000022FFF749FECD2311E0852910D11B486C
:1042200000F0DFF8041C07E0A168002903D0201C7F
:104230000C30FFF7D1FF2468002CF5D1D9232B8057
:1042400001201FE08829F9D1104800F0CAF8041CA9
:1042500012E0A368002B0ED0261C0C36301CFFF792
:1042600005FF002807D0E369002B01D0606898475C
:10427000301CFFF7A9FF2468002CEAD1DEE70023F9
:104280000380032070BDC046601000203411002060
:10429000F0B589B00593061C0023354807930F1C21
:1042A000049200F09EF8334B051CDB6802934DE04E
:1042B00007AC029B211C301C98470390A86802F0B1
:1042C000A9FF039B83420DD0211C301C029B984701
:1042D000041CA86802F09EFF844236D90423EB56E2
:1042E000002B32DAAC68201C02F094FF0799021C04
:1042F000201C02F097FF002827D11E4C301C636958
:1043000098472B79184218D06B69002B05D0281CD0
:10431000311C3A1C984700281BD00E9B301C009380
:104320002C69059B391C049AA047AB69002B10D05F
:10433000281C311C3A1C98470BE0221C9832A369B8
:10434000381C11689847002304E02D68002DAFD178
:1043500004E00123012009B01840F0BD054B381CD2
:104360001A1C94329B691168984700230020F2E7D9
:1043700038110020B4B3000810B54369041C002BA9
:1043800003D1084B996EFFF733FFA369002B04D1CB
:10439000044B201CD96EFFF72DFF0348211C00F0B1
:1043A00043F810BDB4B300083811002010B5074819
:1043B00000F014F8064C0748A368984763689847CC
:1043C00005480021FFF714FE10BDC046381100203B
:1043D000B4B30008914200085C050020002303608C
:1043E00070470068704700B50368002B01D10020BA
:1043F00003E0181C1B68002BFBD100BD00B503684F
:10440000002B10D000220CE08B4208D11968002A42
:1044100001D1016000E0116000221A6003E01A1C63
:104420001B68002BF0D100BD38B5051C0C1CFFF734
:10443000E5FF00232360281CFFF7D5FF002801D1EA
:104440002C6000E0046038BD00B50368002001E086
:104450001B680130002BFBD100BD10B54188002343
:104460000CE042689A181478002C06D101211170D2
:10447000028853438268981803E001338B42F0DBD3
:10448000002010BD30B58268448800230EE08A42C7
:1044900009D142689A181178002901D001391170A8
:1044A0004268D05C05E0058801335219A342EEDB77
:1044B000FF2030BD024B41601B6803607047C0465F
:1044C000F80E002002684368D318036070470000AC
:1044D000014B1B6803607047F80E0020044B026814
:1044E0001B68406801339B1A9842804140427047E4
:1044F000F80E002010B5054B4160FA21041C89001C
:104500001868FBF7F7FD206010BDC046F80E0020CC
:1045100010B5044BFA21041C89001868FBF7EAFD6A
:10452000206010BDF80E002010B5084BFA21041CC5
:1045300089001868FBF7DEFD23686268C31A9B1ABE
:10454000034A00209A42404110BDC046F80E0020A8
:10455000FEFFFF7F08B5044B1B68002B01D1002034
:1045600000E0984708BDC046F4110020014B1860D8
:104570007047C046F411002010B5054C201CFFF711
:1045800075FD002802D0201CFFF716FE10BDC046A6
:10459000E411002070B50388061C151C002B04D004
:1045A0005D4A934200D0B2E01DE0002304E0D90050
:1045B000002001338852DBB2584A132BF7D95849EF
:1045C000A0320B70574B1B681360FFF74DFC564B26
:1045D000102118705548FFF7FFFDFEF7E1FB4E4B29
:1045E0000120338096E0022977D0022904D80029DF
:1045F0005DD00129F3D16AE0872902D08829EED164
:104600002AE04B4B00221A70444C0DE06368AB4229
:1046100005D12088FEF7F0FB002323806360444B24
:1046200008341A7801321A70414B1B78132BEDD9DC
:10463000404BDA69AA4202D10022DA615A763E4A38
:10464000131CC83B05E0D968A94201D1002199801B
:1046500014339342F7D1C2E7344B9D42BFD1281C9B
:10466000FFF704FD0028BAD00022314B19E0314C8D
:10467000637E002B12D02D48FFF79EFD2B78022081
:10468000DA00D3189B002D4AE4181460FEF77EFC74
:104690002B4B1B88002B01D0FFF75CFF244B1A78B3
:1046A0000132234D1A702B78002BE0D097E7002DB4
:1046B00095D0224B03201D60FEF768FC204B1B8821
:1046C000002B01D0FFF746FFFFF756FF87E7002DCD
:1046D00085D01C4B05201D600FE0194B1B88002B5B
:1046E00000D17CE7184B5A7A062A05D10233DB7FCA
:1046F0000B4201D0FFF740FF0120FEF747FC104BB3
:104700001B88002B00D16AE7FFF724FF67E700232F
:104710000380032070BDC0463A0300003C11002016
:10472000E111002060100020D4180020E4110020C6
:10473000E0110020B0170020D4180020AC17002092
:1047400094150020A4170020AE15002038B5194B91
:104750001968002902D00C1C1C3402E0164B1C689E
:104760000C34164B1B785A061BD5154B00221A70B9
:104770000023144A0FE015888888854208D15068C4
:10478000002805D00E4A137000232060636006E005
:1047900001330832DBB2132BEDD9094A1370FFF74E
:1047A000EBFE2068002804D0074B62681978FFF7F9
:1047B00015FC38BDAC170020A4170020A01700205E
:1047C000F81100203C110020D418002010B5141C52
:1047D000FEF762FB002803D0024B04611B68C36034
:1047E00010BDC0466010002008B502F0D9FA80B2B2
:1047F00008BD000008B5002914D00C4B18600C4B04
:104800001A80EB235B009A4200DD1A1C094802F073
:1048100096FA0420FEF7BAFB074B1B88002B01D049
:10482000FFF798FE024B00221A8008BDA417002053
:1048300008180020CA1500209415002000B5021C9D
:104840000023581C520880B2002A01D0031CF8E74C
:10485000002800D0181C00BD10B5031C0022002049
:1048600003E09C5C0002204301328A42F9D110BD72
:1048700000B50C2801D8C0B206E086235B00984240
:1048800001D90E2000E00D2000BD0000024B188869
:10489000013080B2188070470212002000B5FF2955
:1048A00001D9002001E08171012000BD00B5C37A6B
:1048B000DA0602D40120404200E0C07B00BDC27A8B
:1048C00010231343C173C3720120704700B5037BEB
:1048D000DA0701D4002004E0031C58330B60573082
:1048E000007800BD00B5C37A5A0601D43C2300E02D
:1048F000036901200B6000BDC27A402313430161AC
:10490000C3720120704700B5837A9A0701D4002052
:1049100004E0031C5D330B605C30007800BD807ADE
:104920008006C00F704700B5837A1A0701D40020B3
:1049300002E0C36A806A0B6000BD00B5C37A1A0743
:1049400001D4002002E0836C406C0B6000BD00B518
:104950000B23C356002B01DB002005E0031C88302D
:1049600002680833D86F0A6000BD031C4C331980FD
:10497000827A4023134383720120704730B50C259F
:104980004557039C002D01DB002014E0002901D0D5
:10499000856E0D60002A03D0011C6C3109781170FE
:1049A000002B03D0021C6E3212881A80002C01D01A
:1049B000036F2360012030BD10B50F2B16D9802462
:1049C0002401A34212D80A4CA1420FD88166511E7D
:1049D0008A41011C6C310A70021C6E321380027B0A
:1049E00080235B4213430373012000E0002010BDCD
:1049F000FFFF0F0000B5437BDA0601D4002003E07F
:104A00000430C36F01200B6000BD031DD967427BDA
:104A10001023134343730120704700B5031C9033E8
:104A20001B680B60002B02D08E30008800E0002055
:104A300000BD00B5031C90300160802A00D980229F
:104A400090B28E33188000BD10B5041C00E0013117
:104A50000B783F2BFBD02164081C02F0DBFB227B90
:104A600010231343E063237310BD10B5041C00E052
:104A700001310B782F2BFBD0A164081C02F0CAFB7C
:104A8000E27A082313436064E37210BD70B5041C1E
:104A90000D1C00E001352B782F2BFBD0281C3F216B
:104AA00002F0A0FB061C002806D0411C761B201C2F
:104AB000FFF7CAFF266303E0281C02F0ABFB20636C
:104AC000E27A012313436563206BE37270BD10B576
:104AD000082A00D90822041CD2B24E3422704F306A
:104AE00002F02DF9207810BD10B5041C082A00D959
:104AF0000822D2B2201C22771D3002F020F9A27ABF
:104B000010231343207FA37210BDF0B51F1C002398
:104B100085B0061C3B60101C0C1C039202F07AFB53
:104B20003419019402903518341C20E0B44203D0AB
:104B3000631E1B78262B18D12B783D2B15D103989B
:104B4000211C029A02F06EFB00280ED1029B262146
:104B50000133E418019B201C1A1B02F0D5F8002831
:104B600000D101983C60001B05E001340135019B38
:104B70009D42DBD3002005B0F0BD10B5131C021C14
:104B80008E320C1C1188002901D1002004E09030E5
:104B90000068221CFFF7B9FF10BD10B5131C0B22D3
:104BA00082560C1C002A01DB002007E0021C0832A0
:104BB0008830D16F0068221CFFF7A7FF10BDF8B541
:104BC000041C0D1C161C1F1C0021942202F0DBF893
:104BD0006571A6712781F8BD70B582B00C1C151CDB
:104BE00000910190FFF744FE061C201CFFF740FED9
:104BF000360106432E7001AA00248621136849005D
:104C00008B4205D90B4801341918090A295501E0CE
:104C10000C2B02D901340D3B2B556B469A4201D027
:104C20006A46EAE7211C044801F04CFE02B0601C11
:104C300070BDC046F3FEFFFF30AF0008F0B51D1C8D
:104C4000FF231B062B40171C1A1C531E9A4185B0CC
:104C50001C4B0192161C2A1C84461A40039200D059
:104C60000136FF232A1C9A43029201D0013601E04B
:104C7000002D00D0013663465C1A221C6146331CAD
:104C8000114801F01FFE3A1C201C311CFFF7A4FF45
:104C9000019A002A02D02B0E3B540130039B002BBB
:104CA00002D02B0C3B540130029A002A03D02B0A6D
:104CB0003B54013001E0002D01D03D54013005B0DE
:104CC000F0BDC0460000FFFF49AF0008F0B589B055
:104CD00005930EAB80CB04921B78061C0793002B28
:104CE00032D005980024039000252AE0059A079801
:104CF00013191A78824201D0BC4221D1039A711A49
:104D00009B1A0293049B06915A19081C0299FFF7FB
:104D100063FF049A451950190399029A02F00FF89B
:104D2000029B0398ED1800930190311C069A1248DB
:104D30002B1C01F0C7FD059A013412190392311C96
:104D40000134BC42D2D913E0441A049A391C201C05
:104D5000FFF742FF049B051C059918183A1C01F047
:104D6000EEFF0648311C221C3B1CED1901F0AAFD88
:104D700009B0281CF0BDC04667AF000896AF000818
:104D800070B51D1C04AB1E780B680C1C002B0DD0DD
:104D90000168CE5423680068013323601818111C81
:104DA0002A1C01F0D7FF23685D1900E0026025602E
:104DB00070BD0000F0B597B00F1C051C13920021C8
:104DC000942201F0E0FF2F603B789B092B713A7829
:104DD0009206920F6A7139780F220A40082A00DD84
:104DE00008222C1CD2B24E3422707978A971B9787D
:104DF000F878090201432981012B04D0DF4AE04BF6
:104E000080201A600DE22E1C4F36391D301C079190
:104E100001F095FF281C513000782B1C503321786D
:104E20001B7832780090281C523000780190281CA2
:104E3000533000780290281C543000780390281CCE
:104E4000553000780490281C563000780590CD48E5
:104E500001F038FD281C002105220A3001F093FFE3
:104E60002378079A2C1CD318291C00221D345D318D
:104E7000159214922A1C48321294119127342B3126
:104E800010920F943C32103C0E9158390D920C94B4
:104E90000B91443A083400210A9209940791B7E132
:104EA0001978F02008405E1CF02812D12B1C90339A
:104EB0001E60961BB6B2023B1E80802E01D9802256
:104EC0001A802B1C8E3390351B882A680021D15400
:104ED000A3E1090915911A780F231340149315AB18
:104EE0001A680D2A04D1327801360D321A600CE0AE
:104EF0000E2A0AD1FF321A60327812020E32FF32C5
:104F00001A607178023652181A6014AA934201D0BE
:104F1000131CE5E7159A079B9B489B18191C0793E0
:104F2000149B01F0CFFC079C0721E3082140EB18FC
:104F3000012208338A40111C9A780A439A70221C75
:104F4000013A222A00D955E1904B9200D3589F464E
:104F50001499301CFFF780FCC1B2E9738C4806E05D
:104F60001499301CFFF778FC011C2861894801F076
:104F7000A9FC4BE1149A082A00D90822D2B22A7758
:104F8000311C129801F0DBFEE87F297F6A7FAB7F3E
:104F90000090681CC07F0190A81CC07F0290E81C94
:104FA000C07F0390281DC07F0490681DC07F0590BE
:104FB00079483FE02C1C573421780891012900D909
:104FC00024E11499301CFFF747FC089B2C335B004D
:104FD00058532378714801332370E97BC7E7149A4B
:104FE000082A00D908222C1CD2B25C342270311C51
:104FF000119801F0A4FE281C2B1C5F3000785D3353
:105000001A78013321781B780090281C60300078D2
:105010000190281C613000780290281C62300078D2
:105020000390281C633000780490281C64300078BA
:1050300005905B4801F046FCE8E02B1C8C33012214
:105040001A70584801F03EFCE0E01499EE62A96243
:105050005548321C3AE01499301CFFF7FDFB81B231
:105060002987524883E72F23009310980F99321C09
:10507000149BFFF785FE4E48696CAA6C26E0262338
:1050800000930E980D99321C149BFFF779FE2A1C91
:105090002B1C08328833D16F46481A6816E02F233C
:1050A00000930C980B99321C149BFFF769FE424841
:1050B000296B6A6B0AE0262300930A980999321C2F
:1050C000149BFFF75DFE3D48E96B2A6C01F0FAFB8B
:1050D0009CE01499321CAE616961394801F0F2FB21
:1050E000384A274BA5201A609BE01499301CFFF723
:1050F000B3FB2B1C81B24C331980334837E714992A
:10510000301CFFF7A9FB2B1C0207D20F6C330721C1
:10511000089201401A7010238B402C1C6E349BB2F5
:105120002380021C0F24A243089C8A4001092A679D
:10513000A966002C01D1254A00E0254A25484DE00A
:105140001499301CFFF788FB2B1C0207D20F783311
:105150000721089201401A7010238B402C1C7A34CE
:105160009BB20F222380041C9443089A8C400109AF
:10517000EC676967002A2FD1144A2EE0B8AF000807
:105180007C050020CFAF000804B00008A4AE0008E2
:1051900023B0000838B0000847B0000875B0000818
:1051A00082B00008B4B00008C3B00008D4B0000852
:1051B000E3B00008F4B0000806B100081CB1000814
:1051C00033B1000855B100087CB10008A2B5000851
:1051D0008BB100088DB10008134A144801F072FB2E
:1051E00014E01499301CFFF737FB2B1D011CD86706
:1051F0000F48BCE60F48079901F064FB079BDB07EB
:1052000004D50D4A0D4B82201A600AE0149BF31856
:10521000139C3A19934200D242E6094801F052FB2E
:10522000002017B0F0BDC0468BB10008A8B100083F
:10523000C3B10008CFB10008DDB100087C05002033
:10524000F9B10008F0B589B0012307910371051C7D
:105250000160079A0189DA4801F034FB2B680022CB
:105260001A702B682A79197892010A431A706A79A0
:105270002B68302112010A4019782C1C0A431A703D
:105280002B1C4E332A6818780F21014010784F34B8
:10529000014311702A68A979CA48517029892A687E
:1052A000090A917029892A680027D170197801F0BC
:1052B00009FB2E68043608E02178C34801F002FBA0
:1052C000237801373370013401362B1C4E331B78A1
:1052D0009F42F1D3BD4801F0F5FABD48311C01F001
:1052E000F1FAAB7A9A0701D400272FE0281C5F302F
:1052F00000782C1C2F1C2B1C5D375C345E333A78F5
:1053000021781B780090281C603000780190281CC0
:10531000613000780290281C623000780390281CCD
:10532000633000780490281C643000780590A94808
:1053300001F0C8FA2378321C009300230193012066
:105340003B1C0021FFF7C2FC01273618AB7A1C0773
:1053500010D5A96AEA6AA04801F0B4FAAB6A391C10
:10536000009300230193321C0320EB6AFFF7AEFC8D
:1053700003273618AB7ADA0623D5E87F297F6A7FC0
:10538000AB7F0090681CC07F0190A81CC07F02907A
:10539000E81CC07F0390281DC07F0490681DC07F5B
:1053A00005908E4801F08EFA2A7F2B1C0092002275
:1053B0000192391C321C1D330420FFF787FC04279F
:1053C0003618AB7A9C060BD50021854801F07AFA95
:1053D000391C321C05200023FFF730FC0527361846
:1053E000AB7A5A060DD52C1C4C3421887D4801F02F
:1053F00069FA391C321C23880620FFF71FFC062798
:1054000036180A23EB56002B0BDA298F764801F069
:1054100059FA391C321C2B8F0720FFF70FFC072786
:105420003618EB7ADC0710D5296B6A6B6F4801F0F0
:1054300049FA2B6B391C00932F230193321C08204F
:105440006B6BFFF743FC08273618EB7A1A0710D569
:10545000696CAA6C664801F035FA6B6C391C0093D4
:105460002F230193321C0B20AB6CFFF72FFC0B2773
:105470003618EB7ADC060BD5E97B5E4801F022FAA0
:10548000391C321CEB7B0C20FFF7D8FB0C2736189D
:10549000EB7A5A060BD52969574801F013FA391CE3
:1054A000321C0E202B69FFF7C9FB0E2736180B2381
:1054B000EB56002B16DA2C1C2B1C88330834E16FBA
:1054C0001A684E48069301F0FDF9E36F069C0093BD
:1054D00026230193391C321C0F202368FFF7F6FBAB
:1054E0000F2736182B7BDA071AD52C1C00235834CB
:1054F00006930FE02188424801F0E4F9321C23882A
:10550000391C1020FFF79AFB069A361801320692D2
:10551000023410272B1C57331B78069A9A42E9DB7A
:105520002B7BDC0610D5E96B2A6C364801F0CAF9F2
:10553000EB6B391C009326230193321C14202B6C37
:10554000FFF7C4FB142736180C23EB56002B2CDA7C
:105550002B1C6C331B78A96E002B01D12A4A00E06A
:105560002A4A2B1C6E331B88294801F0ABF92B1CEF
:105570006C33AC6E1B782401002B01D008231C4334
:105580002B1C6E3318880009FFF758F90F231840B9
:105590000443211C1F4801F095F9391C321C1720C7
:1055A000231CFFF74BFB172736186B7B1A0758D5C0
:1055B0002B1C78331B78696F002B2DD1124A2CE0FD
:1055C0000FB200082BB200083AB200081FB300085F
:1055D00040B2000882B00008C3B0000847B000081D
:1055E0005DB2000871B20008D4B0000806B100082E
:1055F000E3B0000823B000087FB20008F4B0000850
:1056000075B000081CB10008A2B500088BB10008F5
:105610008DB100088DB20008434A2B1C7A331B88D9
:10562000424801F04FF92B1C78336C6F1B78240132
:10563000002B01D008231C432B1C7A331888000947
:10564000FFF7FCF80F2318400443211C384801F0F1
:1056500039F9391C321C1B20231CFFF7EFFA1B27DA
:1056600036186B7BDC060CD52C1DE16F314801F040
:1056700029F9391C321C1C20E36FFFF7DFFA1C27C5
:105680003618AB7B1A070FD56969AA692A4801F059
:1056900019F96B69321C0093002301932320391CF4
:1056A000AB69FFF713FB36182448311C01F00AF9E7
:1056B0002B68F31A432B2EDC2B1C8E331B88002BFC
:1056C00003D001235B42337001362B1C2C1C90331A
:1056D0008E3419682288301C01F03CFB079A23881D
:1056E000B71AF618B11A16483A1C01F0EBF82868F8
:1056F000C5780178427883780095057901954579D8
:10570000029585790395C07904900E4801F0DAF886
:105710002088381805E000232B600B4A0B4B002033
:105720001A6009B0F0BDC0468BB10008A8B10008EE
:10573000A4B20008BBB20008C6B20008D8B2000884
:10574000F5B2000822B3000855B300087C0500201C
:10575000F0B50F4D83B02C68061C00910192311CEE
:10576000201C04221F1C01F0EAFA6B461B883A1C1D
:10577000E3800199201CFFF73DF8391C054801F032
:10578000A1F82A68002313602A6803B0D380F0BD13
:10579000FC11002084B3000810B50022041C002175
:1057A0000020FFF713F8074B84801860201CFDF7DA
:1057B00053FB011C044801F085F8FFF715F8034B73
:1057C000188010BDFC1100209EB3000802120020BA
:1057D000014B18607047C0462C13002080790123CC
:1057E00001388340D8B27047F0B595B00F90028869
:1057F000002A05D0FD235B009A4200D072E210E03F
:10580000BA4801F05FF8BA48FEF7B6FD00F080FD37
:10581000B848FFF7C1FFFD230F9A5B0013800120FA
:1058200064E2B54B1B788B4200D055E2B34BB44CCD
:1058300000221A702188B34801F044F8B24B1B785B
:105840009A07E8D5B14801F03DF8B14D687FA97ECF
:10585000EA7E2B7F0090A87F0190E87F0290681C71
:10586000C07F0390A81CC07F0490E81CC07F0590F7
:10587000281DC07F0690681DC07F0790A81DC07FAF
:105880000890E81DC07F0990281C0830C07F0A904E
:10589000281C283000780B90281C293000780C90A8
:1058A0009C4801F00FF8688CFDF7D6FA2288011C9D
:1058B000994801F007F8002412E00726974B1B686F
:1058C0001B5D3341DA0701D4302100E031219448D7
:1058D00000F0F8FF013EF1D2924800F0F3FF0134EE
:1058E000874E33889C42E8DB8F4800F0EBFF8F4CFB
:1058F0008A4B3288201C1968FFF75CFA7F4F061C20
:105900003870002800D09BE1A079231C4E331B780F
:1059100021796279009020890190854800F0D2FFBA
:10592000616CA26C834800F0CDFF231C8E33198874
:1059300002331A68804800F0C5FFA379013BDBB24F
:10594000032B00D94CE120896A8C7C4900F06AFD68
:105950007B4B1860002800D13CE16B464E3380221F
:105960001296119610961A806379764E002B03D109
:105970002389301C022104E0FEF788FF0121031C6B
:10598000301C4522FFF71BF968490B1C4E331A786F
:10599000002A03D04F316B48FFF799F86C4611ABE2
:1059A0004E340093614812A90022231CFEF7E6FF43
:1059B00000280FD0119B22886348009312998023FE
:1059C00000F080FF23889AB2802A00D980232380A8
:1059D000119B10935D4B1E68002E00D1F4E0584BD4
:1059E000524F1A68574C6B4610A94E331B886D32C4
:1059F0000091381C211CB047002800D1D1E03F4E57
:105A00003378002B00D0CCE07A7B08231A4210D0E8
:105A10000622A256002A0CDB627B1A4209D14C48AE
:105A200000F050FF5F235B4233704A4A4A4B1A60D2
:105A3000B7E03E4B10991B7B5BB2002B00DB95E07F
:105A4000119B99422DD13F4C6F46261C8E364E3706
:105A500031883A88414800F035FF119A31888A42EE
:105A600009D33F4800F02EFF7E235B42A371201C28
:105A70003C490F2293E03B888A1A9342924152425A
:105A80001299201CFEF798FF221C9032119B11687E
:105A900032885918D21A3B889A4200D91A1C201C05
:105AA0007DE0314800F00EFF109B1299013301D0C8
:105AB000012208E0234B6A468E334E321B8812883F
:105AC0009A42924152421F4C6E464E36D2B23388B1
:105AD000201CFEF771FF231C8E3332881B889342F3
